:020000040000FA
:020000000328D3
:040002000034003492
:0A000600831603130030860000305B
:1000100087003C3085000030880083160317880174
:1000200089018316031381128111011481140115B2
:10003000831203130B11C830810001308600013098
:1000400087000519452885194928051A4D28851A5C
:10005000512806080707A0000F302005552088000A
:10006000051485100B1D32280B11C8308100A00E1D
:100070000F3020055520880005108514A00E0B1D9B
:100080003F280B11C8308100212805194528860A10
:1000900021288519492886032128051A4D28870A11
:1000A0002128851A51288703212882073F340634E6
:1000B0005B344F3466346D347D3407347F346734B9
:0C00C00077347C3439345E347134713490
:02400E00F2209E
:02401000FF3F70
:00000001FF
